{
  "contractName": "CoinRelease",
  "abi": [
    {
      "inputs": [
        {
          "internalType": "uint256",
          "name": "_releaseAmount",
          "type": "uint256"
        },
        {
          "internalType": "address",
          "name": "_tokenAddress",
          "type": "address"
        }
      ],
      "stateMutability": "nonpayable",
      "type": "constructor"
    },
    {
      "anonymous": false,
      "inputs": [
        {
          "indexed": true,
          "internalType": "address",
          "name": "previousOwner",
          "type": "address"
        },
        {
          "indexed": true,
          "internalType": "address",
          "name": "newOwner",
          "type": "address"
        }
      ],
      "name": "OwnershipTransferred",
      "type": "event"
    },
    {
      "inputs": [],
      "name": "noParticipants",
      "outputs": [
        {
          "internalType": "uint256",
          "name": "",
          "type": "uint256"
        }
      ],
      "stateMutability": "view",
      "type": "function",
      "constant": true
    },
    {
      "inputs": [],
      "name": "owner",
      "outputs": [
        {
          "internalType": "address",
          "name": "",
          "type": "address"
        }
      ],
      "stateMutability": "view",
      "type": "function",
      "constant": true
    },
    {
      "inputs": [],
      "name": "releaseAmount",
      "outputs": [
        {
          "internalType": "uint256",
          "name": "",
          "type": "uint256"
        }
      ],
      "stateMutability": "view",
      "type": "function",
      "constant": true
    },
    {
      "inputs": [
        {
          "internalType": "address",
          "name": "",
          "type": "address"
        }
      ],
      "name": "releaseParticipants",
      "outputs": [
        {
          "internalType": "bool",
          "name": "",
          "type": "bool"
        }
      ],
      "stateMutability": "view",
      "type": "function",
      "constant": true
    },
    {
      "inputs": [],
      "name": "renounceOwnership",
      "outputs": [],
      "stateMutability": "nonpayable",
      "type": "function"
    },
    {
      "inputs": [],
      "name": "tokenAddress",
      "outputs": [
        {
          "internalType": "address",
          "name": "",
          "type": "address"
        }
      ],
      "stateMutability": "view",
      "type": "function",
      "constant": true
    },
    {
      "inputs": [
        {
          "internalType": "address",
          "name": "newOwner",
          "type": "address"
        }
      ],
      "name": "transferOwnership",
      "outputs": [],
      "stateMutability": "nonpayable",
      "type": "function"
    },
    {
      "inputs": [],
      "name": "joinDrop",
      "outputs": [],
      "stateMutability": "nonpayable",
      "type": "function"
    }
  ],
  "bytecode": "0x608060405260006003553480156200001657600080fd5b5060405162000d4c38038062000d4c83398181016040528101906200003c919062000172565b60006200004e6200013c60201b60201c565b9050806000806101000a81548173ffffffffffffffffffffffffffffffffffffffff021916908373ffffffffffffffffffffffffffffffffffffffff1602179055508073ffffffffffffffffffffffffffffffffffffffff16600073ffffffffffffffffffffffffffffffffffffffff167f8be0079c531659141344cd1fd0a4f28419497f9722a3daafe3b4186f6b6457e060405160405180910390a3508160048190555080600560006101000a81548173ffffffffffffffffffffffffffffffffffffffff021916908373ffffffffffffffffffffffffffffffffffffffff160217905550505062000230565b600033905090565b6000815190506200015581620001fc565b92915050565b6000815190506200016c8162000216565b92915050565b600080604083850312156200018c576200018b620001f7565b5b60006200019c858286016200015b565b9250506020620001af8582860162000144565b9150509250929050565b6000620001c682620001cd565b9050919050565b600073ffffffffffffffffffffffffffffffffffffffff82169050919050565b6000819050919050565b600080fd5b6200020781620001b9565b81146200021357600080fd5b50565b6200022181620001ed565b81146200022d57600080fd5b50565b610b0c80620002406000396000f3fe608060405234801561001057600080fd5b50600436106100885760003560e01c80638da5cb5b1161005b5780638da5cb5b146100ef5780639d76ea581461010d578063c062dc5f1461012b578063f2fde38b1461014957610088565b80630a030d581461008d5780632a1ad98f146100bd5780633a3b4f62146100c7578063715018a6146100e5575b600080fd5b6100a760048036038101906100a291906106ee565b610165565b6040516100b49190610845565b60405180910390f35b6100c5610185565b005b6100cf61037e565b6040516100dc91906108e0565b60405180910390f35b6100ed610384565b005b6100f76104be565b6040516101049190610801565b60405180910390f35b6101156104e7565b6040516101229190610801565b60405180910390f35b61013361050d565b60405161014091906108e0565b60405180910390f35b610163600480360381019061015e91906106ee565b610513565b005b60016020528060005260406000206000915054906101000a900460ff1681565b600160003373ffffffffffffffffffffffffffffffffffffffff1673ffffffffffffffffffffffffffffffffffffffff16815260200190815260200160002060009054906101000a900460ff1615610212576040517f08c379a0000000000000000000000000000000000000000000000000000000008152600401610209906108a0565b60405180910390fd5b6360dc33bc421115610259576040517f08c379a000000000000000000000000000000000000000000000000000000000815260040161025090610860565b60405180910390fd5b60018060003373ffffffffffffffffffffffffffffffffffffffff1673ffffffffffffffffffffffffffffffffffffffff16815260200190815260200160002060006101000a81548160ff0219169083151502179055506001600360008282546102c3919061090c565b92505081905550600560009054906101000a900473ffffffffffffffffffffffffffffffffffffffff1673ffffffffffffffffffffffffffffffffffffffff1663a9059cbb336004546040518363ffffffff1660e01b815260040161032992919061081c565b602060405180830381600087803b15801561034357600080fd5b505af1158015610357573d6000803e3d6000fd5b505050506040513d601f19601f8201168201806040525081019061037b919061071b565b50565b60035481565b61038c6106bc565b73ffffffffffffffffffffffffffffffffffffffff166103aa6104be565b73ffffffffffffffffffffffffffffffffffffffff1614610400576040517f08c379a00000000000000000000000000000000000000000000000000000000081526004016103f7906108c0565b60405180910390fd5b600073ffffffffffffffffffffffffffffffffffffffff1660008054906101000a900473ffffffffffffffffffffffffffffffffffffffff1673ffffffffffffffffffffffffffffffffffffffff167f8be0079c531659141344cd1fd0a4f28419497f9722a3daafe3b4186f6b6457e060405160405180910390a360008060006101000a81548173ffffffffffffffffffffffffffffffffffffffff021916908373ffffffffffffffffffffffffffffffffffffffff160217905550565b60008060009054906101000a900473ffffffffffffffffffffffffffffffffffffffff16905090565b600560009054906101000a900473ffffffffffffffffffffffffffffffffffffffff1681565b60045481565b61051b6106bc565b73ffffffffffffffffffffffffffffffffffffffff166105396104be565b73ffffffffffffffffffffffffffffffffffffffff161461058f576040517f08c379a0000000000000000000000000000000000000000000000000000000008152600401610586906108c0565b60405180910390fd5b600073ffffffffffffffffffffffffffffffffffffffff168173ffffffffffffffffffffffffffffffffffffffff1614156105ff576040517f08c379a00000000000000000000000000000000000000000000000000000000081526004016105f690610880565b60405180910390fd5b8073ffffffffffffffffffffffffffffffffffffffff1660008054906101000a900473ffffffffffffffffffffffffffffffffffffffff1673ffffffffffffffffffffffffffffffffffffffff167f8be0079c531659141344cd1fd0a4f28419497f9722a3daafe3b4186f6b6457e060405160405180910390a3806000806101000a81548173ffffffffffffffffffffffffffffffffffffffff021916908373ffffffffffffffffffffffffffffffffffffffff16021790555050565b600033905090565b6000813590506106d381610aa8565b92915050565b6000815190506106e881610abf565b92915050565b600060208284031215610704576107036109d9565b5b6000610712848285016106c4565b91505092915050565b600060208284031215610731576107306109d9565b5b600061073f848285016106d9565b91505092915050565b61075181610962565b82525050565b61076081610974565b82525050565b60006107736017836108fb565b915061077e826109de565b602082019050919050565b60006107966026836108fb565b91506107a182610a07565b604082019050919050565b60006107b96019836108fb565b91506107c482610a56565b602082019050919050565b60006107dc6020836108fb565b91506107e782610a7f565b602082019050919050565b6107fb816109a0565b82525050565b60006020820190506108166000830184610748565b92915050565b60006040820190506108316000830185610748565b61083e60208301846107f2565b9392505050565b600060208201905061085a6000830184610757565b92915050565b6000602082019050818103600083015261087981610766565b9050919050565b6000602082019050818103600083015261089981610789565b9050919050565b600060208201905081810360008301526108b9816107ac565b9050919050565b600060208201905081810360008301526108d9816107cf565b9050919050565b60006020820190506108f560008301846107f2565b92915050565b600082825260208201905092915050565b6000610917826109a0565b9150610922836109a0565b9250827fffffffffffffffffffffffffffffffffffffffffffffffffffffffffffffffff03821115610957576109566109aa565b5b828201905092915050565b600061096d82610980565b9050919050565b60008115159050919050565b600073ffffffffffffffffffffffffffffffffffffffff82169050919050565b6000819050919050565b7f4e487b7100000000000000000000000000000000000000000000000000000000600052601160045260246000fd5b600080fd5b7f436f696e2072656c656173652068617320656e6465642e000000000000000000600082015250565b7f4f776e61626c653a206e6577206f776e657220697320746865207a65726f206160008201527f6464726573730000000000000000000000000000000000000000000000000000602082015250565b7f4164647265737320616c7265616479206f7074656420696e2e00000000000000600082015250565b7f4f776e61626c653a2063616c6c6572206973206e6f7420746865206f776e6572600082015250565b610ab181610962565b8114610abc57600080fd5b50565b610ac881610974565b8114610ad357600080fd5b5056fea264697066735822122032577715aafa07e91a0b386745f5d649a0c30f6abe43222ce1439338152ef9a364736f6c63430008060033",
  "immutableReferences": {},
  "source": "// SPDX-License-Identifier: MIT\r\n\r\npragma solidity ^0.8.0;\r\nimport \"@openzeppelin/contracts/access/Ownable.sol\";\r\nimport \"./Discoin.sol\";\r\nimport \"@openzeppelin/contracts/token/ERC20/IERC20.sol\";\r\n\r\ncontract CoinRelease is Ownable {\r\n    mapping(address => bool) public releaseParticipants;\r\n    address[] internal participants;\r\n    uint256 public noParticipants = 0;\r\n    uint256 public releaseAmount;\r\n    address public tokenAddress;\r\n\r\n    constructor(uint256 _releaseAmount, address _tokenAddress) {\r\n        releaseAmount = _releaseAmount;\r\n        tokenAddress = _tokenAddress;\r\n    }\r\n\r\n    function joinDrop() public {\r\n        require(!releaseParticipants[msg.sender], \"Address already opted in.\");\r\n        require(block.timestamp <= 1625043900, \"Coin release has ended.\");\r\n        releaseParticipants[msg.sender] = true;\r\n        noParticipants += 1;\r\n        IERC20(tokenAddress).transfer(msg.sender, releaseAmount);\r\n    }\r\n}\r\n",
  "sourcePath": "C:/Users/paulc/Documents/GitHub/Blockchain-Dev-101/Discord Token/contracts/CoinRelease.sol",
  "compiler": {
    "name": "solc",
    "version": "0.8.6+commit.11564f7e.Emscripten.clang"
  },
  "schemaVersion": "3.4.1",
  "updatedAt": "2021-06-27T13:05:28.214Z",
  "networkType": "ethereum",
  "devdoc": {
    "kind": "dev",
    "methods": {
      "owner()": {
        "details": "Returns the address of the current owner."
      },
      "renounceOwnership()": {
        "details": "Leaves the contract without owner. It will not be possible to call `onlyOwner` functions anymore. Can only be called by the current owner. NOTE: Renouncing ownership will leave the contract without an owner, thereby removing any functionality that is only available to the owner."
      },
      "transferOwnership(address)": {
        "details": "Transfers ownership of the contract to a new account (`newOwner`). Can only be called by the current owner."
      }
    },
    "version": 1
  },
  "userdoc": {
    "kind": "user",
    "methods": {},
    "version": 1
  }
}